:1000000068F6FF1F91290000EB0F00000F1700009A
:1000100000000000000000000000000000000000E0
:100020000000000000000000000000005729000050
:10003000000000000000000063290000C529000046
:10004000C7290000C9290000CB290000CD290000E4
:10005000CF290000D1290000D32900005526000037
:10006000D5290000D7290000D9290000DB2900008C
:10007000DD290000DF290000E1290000E32900005C
:10008000E5290000E7290000E9290000EB2900002C
:10009000ED290000EF2900000D2500004726000093
:1000A00063260000F1290000F3290000F529000073
:1000B000F7290000F9290000FB290000FD290000B4
:1000C000FFFFFFFFFFFFFFFFFFFFFFFFFEFFFFFF41
:1004100000000000000000000000000000000000DC
:10042000000000F800000000000000333000000071
:1004300000100C06100C0600000000000000000078
:1004400040C07840C0784000043F04043F040400EA
:10045000007088FC08300000001820FF211E0000FA
:10046000F008F000E018000000211C031E211E000F
:1004700000F00888700000001E2123241927211095
:1004800010160E0000000000000000000000000038
:10049000000000E0180402000000000718204000DF
:1004A00000020418E00000000040201807000000CF
:1004B000404080F0804040000202010F0102020033
:1004C000000000F0000000000101011F0101010017
:1004D000000000000000000080B07000000000007C
:1004E0000000000000000000000101010101010105
:1004F000000000000000000000303000000000009C
:100500000000000080601804006018060100000070
:1005100000E010080810E000000F102020100F006D
:10052000001010F8000000000020203F20200000F4
:10053000007008080888700000302824222130004C
:1005400000300888884830000018202020110E0054
:100550000000C02010F8000000070424243F2400FD
:1005600000F80888880808000019212020110E00D2
:1005700000E0108888180000000F112020110E00E4
:1005800000380808C83808000000003F00000000DC
:100590000070880808887000001C222121221C009D
:1005A00000E010080810E0000000312222110F00C6
:1005B000000000C0C000000000000030300000005B
:1005C00000000080000000000000806000000000CB
:1005D00000008040201008000001020408102000E4
:1005E000404040404040400004040404040404002F
:1005F00000081020408000000020100804020100C4
:10060000007048080808F0000000003036010000C3
:10061000C030C828E810E0000718272423140B0076
:100620000000C038E0000000203C230202273820F0
:1006300008F8888888700000203F202020110E00D4
:10064000C0300808080838000718202020100800CB
:1006500008F808080810E000203F202020100F00B4
:1006600008F88888E8081000203F20202320180080
:1006700008F88888E8081000203F200003000000E8
:10068000C03008080838000007182020221E020089
:1006900008F808000008F808203F210101213F2048
:1006A000000808F8080800000020203F2020000073
:1006B00000000808F8080800C08080807F00000063
:1006C00008F888C028180800203F2001263820009C
:1006D00008F8080000000000203F20202020300003
:1006E00008F8F800F8F80800203F003F003F20001D
:1006F00008F830C00008F808203F200007183F0025
:10070000E01008080810E0000F10202020100F0053
:1007100008F808080808F000203F21010101000046
:10072000E01008080810E0000F18242438504F008B
:1007300008F8888888887000203F2000030C30204B
:1007400000708808080838000038202121221C0089
:10075000180808F8080818000000203F20000000D2
:1007600008F808000008F808001F202020201F00BB
:100770000878880000C83808000007380E0100001B
:10078000F80800F80008F800033C0700073C0300E5
:10079000081868808068180820302C03032C30204B
:1007A0000838C800C83808000000203F20000000BA
:1007B00010080808C8380800203826212020180012
:1007C000000000FE020202000000007F40404000E6
:1007D000000C30C000000000000000010638C0001E
:1007E00000020202FE000000004040407F000000C6
:1007F00000000402020204000000000000000000EB
:1008000000000000000000008080808080808080E8
:1008100000020204000000000000000000000000D0
:1008200000008080808000000019242222223F20C6
:1008300008F8008080000000003F112020110E0009
:100840000000008080800000000E11202020110098
:10085000000000808088F800000E112020103F204A
:100860000000808080800000001F222222221300CE
:10087000008080F0888888180020203F2020000019
:100880000000808080808000006B949494936000CE
:1008900008F8008080800000203F210000203F20D9
:1008A00000809898000000000020203F20200000D9
:1008B000000000809898000000C08080807F0000C9
:1008C00008F8000080808000203F24022D302000A6
:1008D000000808F8000000000020203F2020000051
:1008E0008080808080808000203F20003F20003F6B
:1008F0008080008080800000203F210000203F2079
:100900000000808080800000001F202020201F0029
:10091000808000808000000080FFA12020110E0058
:100920000000008080808000000E112020A0FF8049
:10093000808080008080800020203F2120000100F6
:10094000000080808080800000332424242419004B
:10095000008080E0808000000000001F2020000058
:100960008080000000808000001F202020103F2099
:10097000808080000080808000010E300806010029
:1009800080800080008080800F300C030C300F00CE
:1009900000808000808080000020312E0E312000F9
:1009A000808080000080808080818E701806010029
:1009B00000808080808080000021302C2221300047
:1009C00000000000807C020200000000003F404068
:1009D00000000000FF00000000000000FF00000019
:1009E0000002027C800000000040403F0000000048
:1009F00000060101020204040000000000000000E3
:100A000000B5C0B2002803D0022836D01AD383E044
:100A1000994800682022024397480260C9B2002921
:100A200002D0012907D00CE09448006894490140A5
:100A30009248016005E091480068924901408F4862
:100A4000016069E08C480068402202438A480260E5
:100A5000C9B2002902D0012908D00DE087480068FA
:100A60008021C90001438548016005E08348006892
:100A700085490140814801604EE07F48006880223E
:100A800002437D480260C9B2002908D0022920D063
:100A900012D3042933D027D3052937D03CE07B4833
:100AA000006803218843794908607848006801217B
:100AB0000143764801602FE0744800680C218843A8
:100AC0007249086071480068042101436F48016061
:100AD00022E06E480068302188436C4908606B480A
:100AE00000686A49086017E068480068C0218843C8
:100AF0006649086065480068644908600CE063481E
:100B000000685F4901406148016005E05F48006896
:100B10005C4901405D48016000BDF6B583B0050049
:100B20001C006846017B2800C0B2FFF769FF7F48C0
:100B30000068FA218900484301900198000C04994B
:100B400000F0B5F90700002600E0761CBFB23800BF
:100B500030410128F9DAF6B2082E00DB89E001986D
:100B6000F040049900F0A3F907008948EDB2022192
:100B700069434752EDB2002D03D0022D19D00CD39A
:100B800023E0BFB23800401C44432000FA21890012
:100B900000F08DF96946088017E0BFB23800401CAC
:100BA00044432000FA21890000F081F96946088059
:100BB0000BE0BFB23800401C44432000FA218900FA
:100BC00000F075F969460880FFE7BFB27548EDB2DD
:100BD00004216943405887607248EDB2042169439B
:100BE00040586946097B0822514340186D49EDB2CF
:100BF00004226A4389586A46127B08235A4389189B
:100C0000C96804229143C1606648EDB2042169437A
:100C100040586946097B0822514340182821C16089
:100C2000F6B27007400F082101435E48EDB204227E
:100C30006A4380580160EDB2022D06D10020594967
:100C4000EDB204226A438958C8645648EDB20421C3
:100C5000694340586946097B082251434018694658
:100C60000988016100204F49EDB2042255434959DA
:100C7000486005B0F0BD0000148004400C800440C2
:100C8000FFFEFFFFFFFDFFFFFFF7FFFF10800440A7
:100C900080B5C0B2002803D002282FD017D343E07C
:100CA0006D480068202101436B4801606B48006873
:100CB0006B49014069480160202000F04FF9674806
:100CC0000068802149040143644801602CE06248C7
:100CD0000068402101436048016060480068614944
:100CE00001405E480160272000F038F95B48006849
:100CF0008021090501435948016015E05648006804
:100D0000802101435448016054480068564901401D
:100D100052480160002055490860052000F01EF986
:100D20004E4800684D49086001BD000014F2FF1FE5
:100D300010B504002000C0B2FFF7AAFF1948E4B2C2
:100D400004216143405800681649E4B2042262431A
:100D5000895808601348E4B2042161434058006890
:100D6000182101430F48E4B2042262438058016015
:100D700000200C49E4B2042254430959486010BDD4
:100D80000849C0B2042250430858406880B27047F6
:100D900008F2FF1F0021034AC0B204235843105831
:100DA00041607047A02900001FB50400684610216B
:100DB00000F018F9002014E0042141436158002993
:100DC00003D5002104224243A1500421414361582C
:100DD000274A914204DB9621890004224243A15014
:100DE000401C0428E8D3206822498988491C4843CC
:100DF000FA21890000F05BF8009060681D4989883D
:100E0000491C4843FA21890000F051F80190A0687C
:100E100018498988491C4843FA21890000F047F89D
:100E20000290E06813498988491C4843FA218900E7
:100E300000F03DF8039000980F4989680862019816
:100E40000D498968886202980B498968086303988C
:100E50000949896888631FBD148004400C800440E0
:100E6000FFFFFFFCFFFFFFF3FFFFFFCF4CA003409E
:100E70005902000008F2FF1FA0290000F4460028D4
:100E800004D4494200F013F8404260474042002930
:100E900005D45FD000F00BF8404249426047494218
:100EA00000F005F84942604703460B43E6D40022B0
:100EB000030A8B420BD203098B4219D243088B429F
:100EC0002ED2411A00D20146524110467047FF22ED
:100ED00009023FD012068B4205D3121209028B423F
:100EE00001D31212090203098B4219D300E0090A47
:100EF000C3098B4201D3CB01C01A524183098B42F3
:100F000001D38B01C01A524143098B4201D34B01DB
:100F1000C01A524103098B4201D30B01C01A52413E
:100F2000C3088B4201D3CB00C01A524183088B42C5
:100F300001D38B00C01A524143088B4201D34B00AE
:100F4000C01A5241884200D3401A5241CFD20146C2
:100F50001046704708B500F047F808BD00B501001D
:100F6000C9B24909C006C00EC9B2002903D002297E
:100F700011D008D316E00C490968012282400A43C7
:100F8000094802600EE009490968012282400A43CB
:100F90000648026006E006490968012282400A43C9
:100FA0000348026000BD00BF089004400C9004405C
:100FB00010900440130030B414001500103902D30F
:100FC00010393CC0FCD2490700D30CC000D504C086
:100FD000890002D30280801C002900D5027030BC39
:100FE000704700000022E5E77047FEE710B50024D7
:100FF000F4E00221042000F0E3F980B2E149042288
:10100000624389584143080000F00EFADE49042289
:10101000624388500221052000F0D2F9010089B214
:10102000D848042262438058484300F0FDF9D6496D
:1010300004226243891808630221062000F0C0F9E7
:10104000010089B2CF48042262438058484300F02F
:10105000EBF9CD4904226243891808660221072072
:1010600000F0AEF9010089B2C648042262438058FC
:10107000484300F0D9F9C4490422624389189022F8
:10108000885002210C2000F09BF9010089B2BD4874
:10109000042262438058484300F0C6F9BA4904224A
:1010A00062438918C022885002210D2000F088F97F
:1010B000010089B2B348042262438058484300F0DB
:1010C000B3F9B149042262438918F0228850022101
:1010D0000E2000F075F9010089B2AA48042262438B
:1010E0008058484300F0A0F9A749042262438918B8
:1010F00090225200885002210F2000F061F9010077
:1011000089B2A048042262438058484300F08CF919
:101110009D49042262438918A822520088509B48A6
:101120000068994904226243895800F096F997496A
:101130000860974800689449042262438918096B43
:1011400000F08BF992490860924800688E490422A9
:1011500062438918096E00F080F98E4908608E4854
:10116000006889490422624389189022895800F056
:1011700074F98949086089480068834904226243F8
:101180008918C022895800F068F9844908608448A9
:1011900000687D49042262438918F022895800F0D2
:1011A0005CF97F4908607F48006877490422624300
:1011B000891890225200895800F04FF97949086047
:1011C000794800687049042262438918A8225200B5
:1011D000895800F042F974490860641C0C2C00DA4C
:1011E00007E77248006800F01FF9010067480068CF
:1011F00000F0C3F9654908606C48006800F014F914
:1012000001006348006800F0B8F961490860674868
:10121000006800F009F901005E48006800F0ADF9CF
:101220005C4908606148006800F0FEF801005A4817
:10123000006800F0A2F9584908605C48006800F0B6
:10124000F3F801005548006800F097F95349086029
:101250005648006800F0E8F801005148006800F0C6
:101260008CF94F4908605148006800F0DDF8010032
:101270004C48006800F081F94A4908604B48006812
:1012800000F0D2F801004848006800F076F94649BD
:1012900008603E480068464900F0DFF8454900F024
:1012A0006CF9454900F0BEF900F014FA4349088092
:1012B000374800683E4900F0D0F83E4900F05DF93B
:1012C0003D4900F0AFF900F005FA3C49488031484B
:1012D0000068374900F0C1F8364900F04EF9364948
:1012E00000F0A0F900F0F6F9344988802A48006837
:1012F0002F4900F0B2F82F4900F03FF92E4900F0D5
:1013000091F900F0E7F92D49C88024480068284980
:1013100000F0A3F8274900F030F9274900F082F9DE
:1013200000F0D8F9254908811D480068204900F0DF
:1013300094F8204900F021F91F4900F073F900F0FA
:10134000C9F91E49488117480068194900F085F815
:10135000184900F012F9184900F064F900F0BAF9E0
:101360001649888110480068114900F076F8114943
:1013700000F003F9104900F055F900F0ABF90F49FE
:10138000C88110BD00F0FF1F50F0FF1F38F2FF1F93
:101390003CF2FF1F40F2FF1F44F2FF1F48F2FF1F05
:1013A0004CF2FF1F50F2FF1F54F2FF1F3CF0FF1FD3
:1013B0000000A0C200002A430000C842E8F1FF1F5D
:1013C00000B5C9B289000C220A4012490A60002106
:1013D000114A1160C0B2C006C00E104908600F4823
:1013E00000680006FBD50E4800680005000D00BD32
:1013F00006480068802189050143044801600448CB
:1014000000680849014302480160704714800440A5
:1014100018B0034008B0034004B0034000B00340DC
:1014200010B00340F0F000009D21020008D5F44602
:10143000524200F005F80122D20710436047000035
:101440000AD002D4491E9218FCD5C905100A12060A
:10145000524100D3012A484170470122D2070300BC
:101460004B402ED4431A01D2C01AC91830B44B18BD
:101470000418240E1B0E22D0FF2C20D0E31A182BA8
:101480001DDC09021143C40D641E00021043944682
:101490001925ED1A0A00AA40D940451801D36D0854
:1014A000A41CE405D209280A2D062A436546AA4150
:1014B000604103181B0EFF2B01D3C00DC00530BCCB
:1014C0007047514006E05140CCE70122D2070300AB
:1014D0004B40F8D4431A03D2C01AC91850405140A7
:1014E00030B44B18090211430418240E1B0E40D0CF
:1014F000FF2C3AD025009D410BD31ED8C50D4002CC
:10150000401A0BD3ED050100400AC905914168411D
:10151000D5E7C50D40024918401AD0D00121400836
:10152000491C0018FCD58C4204D36D1A000AED0545
:101530004019C4E7E8051040C1E7182DBFDCAC1C1A
:101540000D00E140E5414D40012D4941C40D00022F
:101550001043451A01D46D199543641EE405280A09
:101560002D069541604130BC7047FF2BA7D1D84371
:10157000A5E72442A3D10020A1E730B405004D40E7
:101580000122D20715404B180418240E28D01B0E38
:101590002FD0FF2C34D0FF2B37D0E41A00020902E1
:1015A0001043114343084808D10D1B1A02D2641E90
:1015B000DB181B18DB18834200D31B1A4941F9D3EF
:1015C0007F3426DDFE2C08DAE4054808C9071943F4
:1015D00091416041284330BC7047FF20C005F9E7C6
:1015E00028001B0E03D0FF2BF5D14902F3D0D043C6
:1015F000F1E7FF2C01D14002F9D1FF20C005E9E756
:101600004002F4D1FF2BF8D1F1E728004902E2D0E3
:10161000EDE70B0200202442DCD15B129B1CD9D9E0
:10162000D805D7E730B405004D400122D207154058
:101630004B180418240E2ED01B0E32D0FF2C34D0A1
:10164000FF2B3AD0E4180002090210431143000AAC
:10165000090A9446C2B24A43000AC3B24B43000A85
:101660004843110A5B181A43D2B2190A091801D467
:101670004918641E080A7F3C23DBFE2C08DAE405C7
:1016800009061143634699416041284330BC7047C5
:10169000FF20C005F9E728001B0EFF2BF6D1D04331
:1016A000F4E72800FF2CF1D1F9E74002F7D1FF2B36
:1016B00001D14902F3D1E005E7E7D8054902E4D0BA
:1016C000EDE743020020641CDFD15B129B1CDCD9D8
:1016D000D805DAE70122D2070118090E7F3910D4A4
:1016E00049421F310FD4001805D2C0011043C84031
:1016F00000D5D0437047C0011043C84005D44042D4
:101700007047002070470042F3D510007047FEE795
:1017100038B5040008250121062000F076FA0021E2
:101720001A2000F072FA0CE000211C2000F06DFA83
:1017300001211A2000F069FA00211A2000F065FA50
:1017400064002800451EC0B2002806D02006EBD554
:1017500001211C2000F059FAEAE731BD38B5040038
:1017600008250021062000F050FA00211A2000F080
:101770004CFA0CE000211C2000F047FA01211A204D
:1017800000F043FA00211A2000F03FFA640028001C
:10179000451EC0B2002806D02006EBD501211C2032
:1017A00000F033FAEAE731BD00B507E0FA2189011C
:1017B0000A00511E92B2002AFAD1401E80B20028BF
:1017C000F4D100BD10B5040008005038C0B2FFF7D6
:1017D000C5FF2100C9B2090910200843C0B2FFF7B4
:1017E000BDFF2107090F01200843C0B2FFF7B6FF74
:1017F00010BD70B50400002508E02000C0B2FFF75E
:1018000087FF761CF6B2802EF7DB6D1CEDB2082D3B
:101810000CDA28005038C0B2FFF7A0FF0120FFF714
:101820009DFF1020FFF79AFF0026EBE770BD80B503
:10183000012201211A2000F04FF9002201211C2071
:1018400000F04AF901220121372000F045F9012278
:101850000121062000F040F9002201212A2000F099
:101860003BF901211A2000F0D0F900212A2000F0D4
:10187000CCF90021372000F0C8F93220FFF794FF9F
:101880000121372000F0C1F9AE20FFF767FF0020EB
:10189000FFF764FF1020FFF761FF4020FFF75EFFB6
:1018A0008120FFF75BFFCF20FFF758FFA120FFF754
:1018B00055FFC820FFF752FFA620FFF74FFFA820D3
:1018C000FFF74CFF3F20FFF749FFD320FFF746FF0C
:1018D0000020FFF743FFD520FFF740FF8020FFF7F0
:1018E0003DFFD920FFF73AFFF120FFF737FFDA205D
:1018F000FFF734FF1220FFF731FFDB20FFF72EFF49
:101900004020FFF72BFF2020FFF728FF0220FFF7E2
:1019100025FF8D20FFF722FF1420FFF71FFFA420D3
:10192000FFF71CFFA620FFF719FFAF20FFF716FFF8
:101930000020FFF75EFF00210020FFF743FF01BDFD
:10194000F7B504000027002600250EE05E48FFB230
:10195000062179434018F6B2805DFFF7D9FE761C68
:10196000F6B2062EF2DBA41D6D1C0298EDB2405DAE
:10197000002814D00298EDB2475D203FE4B27F2CDE
:1019800005DB0024684669460979491C01716846EF
:1019900001792000C0B2FFF715FF0026E0E7F7BD90
:1019A000F7B504000025002600270FE04748EDB2F8
:1019B00010216943F6B289194018007AFFF7A8FE92
:1019C000761CF6B2082EF1DB08347F1C0298FFB2B9
:1019D000C05D00282BD00298FFB2C55D203DE4B267
:1019E000792C05DB0024684669460979491C017198
:1019F000684601792000C0B2FFF7E4FE002609E046
:101A00003248EDB210216943F6B28919405CFFF704
:101A10007FFE761CF6B2082EF2DB68460179491C7F
:101A2000C9B22000C0B2FFF7CDFE0026C9E7F7BD5E
:101A3000F0B504000D0006260020F6B2A8550FE010
:101A4000761EA4B220000A21FFF72EFA0F00A4B2DE
:101A500020000A21FFF728FA04003037F6B2AF550C
:101A6000F6B2002EECD1F0BD7CB504000E001500DE
:101A70002DB2002D0AD5280000B2454214A2310033
:101A8000C9B22000C0B2FFF75BFF06E011A231002F
:101A9000C9B22000C0B2FFF753FFA41D6946280059
:101AA00080B2FFF7C5FF6846451C08E02A003100F8
:101AB000C9B22000C0B2FFF743FFA41D6D1C2878F7
:101AC0000028F3D173BD0000E422000010040000E0
:101AD0002D0000002000000018B50300DBB25B09F8
:101AE0006C462370C006C00E6B465870D2B2002AF6
:101AF00000D00122C9B2002928D168460078574990
:101B0000C0B2042250430858806901216A465278C5
:101B10009140884351496A46127804235A438958B0
:101B20008861684600784D49C0B204225043085885
:101B3000406901216A4652789140884347496A4684
:101B4000127804235A438958486143E06846007874
:101B50004249C0B204235843085880690300012059
:101B600069464978884018433C496B461B780424F1
:101B70006343C9588861684600783849C0B2042375
:101B80005843085840690300012069464978884055
:101B9000184332496B461B7804246343C958486193
:101BA000684600782D49C0B204235843085800689D
:101BB00001216B465B7899408843D2B269464978E7
:101BC0008A400243100025496A46127804235A438A
:101BD0008958086011BD81B00100C9B249096A463F
:101BE0005170C006C00E69460870684640781B49AF
:101BF000C0B2042250430858016968460078C140C9
:101C00000800C007C00F01B0704780B50200D2B213
:101C100052096B465A70C006C00E6A461070C9B2AF
:101C2000002900D00121684640780C4AC0B2042344
:101C300058431058006801226B461B789A40904325
:101C4000C9B26A46127891400143080003496A46C6
:101C5000527804235A438958086001BDAC2900001A
:101C600080B5C0B2002803D0022824D014D32FE0BE
:101C7000584800688021490301435648016056488E
:101C8000006880210143544801600220FFF766F993
:101C90000320FFF763F91BE04E48006880218903A9
:101CA00001434C4801604D480068802149010143CF
:101CB0004A4801600CE0474800688021C90301439D
:101CC0004448016045480068454901404348016077
:101CD00001BD38B504000D002000C0B2FFF7C0FF01
:101CE0004048E4B2042161434058C078F3210140E8
:101CF0003C48E4B2042262438058C1703948E4B2DF
:101D000004216143405880783649E4B2042262439A
:101D10008958887088480068FA21890048430090F3
:101D2000009800090A2148432900FFF7C0F8401D28
:101D30000A21FFF7BCF8010080208001814200D316
:101D40007E492848E4B20422624380580078E022A9
:101D500002402448E4B204236343C058027021487F
:101D6000E4B204226243805800780A0AD206D20EF6
:101D700002431C48E4B204236343C05802700800C5
:101D8000184AE4B204236343D25850701548E4B2B1
:101D9000042262438058C0780C2202431148E4B206
:101DA00004235C430059C27000980009FFF77FF8D4
:101DB00032BD00B50B4AC0B204234343D258127956
:101DC0001206F7D5074AC0B2042358431058C17110
:101DD00000BD0000148004400C80044010800440CA
:101DE000FFDFFFFF30F0FF1F70B50600002400206A
:101DF000AA20534AE4B21055641CAA20504AE4B207
:101E00001055641C02204E4AE4B21055641C002098
:101E10004B4AE4B21055641C088880B2000A484A54
:101E2000E4B21055641C0888454AE4B21055641C9D
:101E3000488880B2000A424AE4B21055641C4888BF
:101E40003F4AE4B21055641C888880B2000A3C4ABC
:101E5000E4B21055641C8888394AE4B21055641CF9
:101E6000C88880B2000A364AE4B21055641CC8889B
:101E7000334AE4B21055641C088980B2000A304A23
:101E8000E4B21055641C08892D4AE4B21055641C54
:101E9000488980B2000A2A4AE4B21055641C488975
:101EA000274AE4B21055641C888980B2000A244A8B
:101EB000E4B21055641C8889214AE4B21055641CB0
:101EC000C88980B2000A1E4AE4B21055641CC88951
:101ED0001B49E4B20855641C00201949E4B20855B6
:101EE000641C00201649E4B20855641C201F1449E4
:101EF000C8700020002104E0114AC9B2525C801869
:101F0000491C0A002300D2B2DBB29A42F4D30C4936
:101F1000E4B20855641C002507E00948EDB2415DB4
:101F20003000C0B2FFF745FF6D1C28002100C0B291
:101F3000C9B28842F1D370BD1CF2FF1FFF1F000021
:101F4000D0F1FF1F0121C006C00E81408148016011
:101F50007047F0B540B2002821D57F4B40B2020750
:101F6000120F083A9208042462437B4C40B20507E2
:101F70002D0F083DAD08042675436459FF258607DB
:101F8000B60F08277E43B540AC438901C9B280072C
:101F9000800F082568438140214399501AE06F4A19
:101FA00040B2830804246343D258FF238407A40F5C
:101FB00008256C43A3409A438901C9B283079B0F4C
:101FC0000824634399401143644A40B280080423C3
:101FD00058431150F0BD10B5002400F0CBF872B694
:101FE000FFF725FC002200211020FFF775FD0022DD
:101FF00000214220FFF770FD002200214320FFF75F
:102000006BFD002200211B20FFF766FD002201214D
:102010001720FFF761FD002200211020FFF75CFD73
:10202000012200213020FFF757FD0122002131203D
:10203000FFF752FD012200213220FFF74DFD012262
:1020400000213320FFF748FD3020FEF787FF3120C5
:10205000FEF784FF3220FEF781FF3320FEF77EFF7C
:1020600000233F4A04210220FEF757FD00233C4A8B
:1020700005210220FEF751FD0023394A02210220EA
:10208000FEF74BFD0023364A03210220FEF745FDF3
:102090001020FFF7A0FD002804D1641C31488442C1
:1020A000F6DB002430A200210020FFF779FC01209C
:1020B000FEF73EFE0020FEF73BFEFFF799F93120C8
:1020C000FFF789FD002811D19620400027490860BC
:1020D000002026494860002024498860962040005E
:1020E0002249C8602148FEF75FFE25E03220FFF755
:1020F00072FD002811D1FA2040001C490860002020
:102100001A494860002019498860FA2040001749A0
:10211000C8601648FEF748FE0EE00020134908602C
:1021200000201249486000201049886000200F49B3
:10213000C8600E48FEF738FE0D49002000F080F818
:1021400000211620FFF705FF1620FFF7FBFE62B601
:10215000FEE7000000E100E01CED00E000E400E02C
:10216000A08C0000112700004F4B0000F8F1FF1F6A
:10217000400D030000B587B068462849182200F0DA
:1021800097F8274827490860264800686946264A84
:102190001278D2B2D2085207520F02235A4389183A
:1021A0004989FEF784FE1F4908601E480068694699
:1021B0001E4A1278D2B2520902235A43895AFEF7B4
:1021C00076FE184908601748006819490968090F20
:1021D0008907890F491CFEF76AFE164908601548F1
:1021E000006813490A681100C901C90F491CFEF7AC
:1021F0005EFE114908600B4800680D490A6811002D
:10220000C902C90F491CFEF752FE0C490860E121C2
:1022100049020220FFF75DFD07B000BD78290000EC
:102220000080380110F2FF1F0040064001400640C8
:102230002480044018F2FF1F1CF2FF1F14F2FF1F3E
:10224000184A126802231343164A13600022164BE1
:102250001A60164AC0B210234343D1501349C0B28A
:10226000102242438918C96801220A430F49C0B2AB
:1022700010234343C918CA600C49C0B2102242431C
:102280008918896801229143084AC0B21023434348
:10229000D21891600321054AC0B210235843101888
:1022A0008160704714800440007003400071034057
:1022B00070B4103A03D378C9103A78C0FBD25307F0
:1022C00001D318C918C001D508C908C0D20704D362
:1022D0000B880380891C801C002A01D50B780370B1
:1022E00070BC70470000000000000000002F0000DC
:1022F00000000700070000147F147F1400242A7FC9
:102300002A12006264081323003649552250000047
:102310000503000000001C224100000041221C00B7
:102320000014083E08140008083E0808000000A039
:102330006000000808080808000060600000002035
:1023400010080402003E5149453E0000427F400013
:10235000004261514946002141454B310018141299
:102360007F10002745454539003C4A494930000166
:102370007109050300364949493600064949291EB5
:102380000000363600000000563600000008142217
:102390004100001414141414000041221408000217
:1023A0000151090600324959513E007C1211127C3C
:1023B000007F49494936003E41414122007F414169
:1023C000221C007F49494941007F09090901003E5B
:1023D0004149497A007F0808087F0000417F410099
:1023E000002040413F01007F08142241007F40400F
:1023F0004040007F020C027F007F0408107F003EF7
:102400004141413E007F09090906003E4151215EDC
:10241000007F091929460046494949310001017FD9
:102420000101003F4040403F001F2040201F003F6F
:102430004038403F00631408146300070870080721
:1024400000615149454300007F41410000552A5534
:102450002A55000041417F000004020102040040AF
:1024600040404040000001020400002054545478D1
:10247000007F4844443800384444442000384444F1
:10248000487F00385454541800087E09010200188F
:10249000A4A4A47C007F080404780000447D4000CC
:1024A000004080847D00007F102844000000417FB0
:1024B0004000007C04180478007C0804047800388C
:1024C0004444443800FC242424180018242418FC14
:1024D000007C0804040800485454542000043F447D
:1024E0004020003C4040207C001C2040201C003C40
:1024F0004030403C004428102844001CA0A0A07C90
:10250000004464544C4414141414141480B55848F2
:102510000068012101435648016056480068401C8C
:10252000544908600020FEF72BFC53490860012045
:10253000FEF726FC514908604220FFF74CFB0028BB
:1025400004D14D48006841424B4801604320FFF7E9
:1025500042FB012804D149480068414247480160D4
:102560003020FFF738FB00280ED1002044490860D6
:1025700000204349486000204149886000204049CC
:10258000C8603F48FEF710FCFEF730FD3D4840892B
:102590003D4908603B48C0893C4908603A480068AA
:1025A0003A490968401A3A49086033480268334892
:1025B00001683748006800F0DDF82DE000202D4963
:1025C00008600020FFF715F92C480068020012B2DD
:1025D00000210020FFF748FA27480068020012B2E5
:1025E00001210020FFF740FA26484089020012B27C
:1025F00002210020FFF738FA22488089020012B237
:1026000003210020FFF730FA1E48C089020012B2F1
:1026100004210020FFF728FA164800681528CDD2BB
:102620001648006817490880134800681549488013
:1026300014490220FFF7D8FB0020FEF7ABFB012076
:10264000FEF7A8FB01BD13480068012101431148B2
:102650000160704710480078042101430E48017062
:1026600070470E480068242101430C480160704700
:102670000C71034028F2FF1F24F2FF1F20F2FF1FFE
:10268000F8F1FF1FE8F1FF1F2CF2FF1F30F2FF1FD0
:1026900034F2FF1F1C7103400010034008900740F4
:1026A00070B504000D0049480068494909684018A0
:1026B00048490968FEF7F8FBFEF7B6FE0600601908
:1026C000FEF7B2FE01003000FEF7FFFE01004248B7
:1026D0000068FEF7A7FFFEF7FDFF70BD10B5010013
:1026E0003E4C3F484842FEF79FFE2100FEF79AFF0E
:1026F000FEF7F0FF10BD80B5012805DB394A1060F8
:102700000020384A506004E00022364B1A60354AF7
:102710005060012905DB0020324A90603148C160D9
:1027200004E03048816000202E49C8602D48FEF743
:102730003BFB01BD00B5962040002B490968424291
:10274000914202DA4142284A1160274909688842C9
:1027500001DA25490860254909684242914202DAB6
:102760004142224A116021490968884201DA1F4921
:10277000086000BD10B5040008001100FFF790FFCD
:102780001B490860002000212000FFF7A7FF19491E
:102790000860174800681749096840180B4909681C
:1027A0004018114908601248006812490968401A27
:1027B0000749096840180D490860FFF7BBFF0B483F
:1027C000016809480068FFF796FF10BD44F0FF1F3D
:1027D00048F0FF1F4CF0FF1F40F0FF1F000020419A
:1027E0006F12833AF8F1FF1F60F2FF1F64F2FF1FC0
:1027F00058F2FF1F5CF2FF1F1548164908800120A0
:1028000015490870232015490870704780B5FFF7F7
:10281000F3FF80204004124908601020114908701D
:10282000962011490870222010490870104800783D
:10283000C006FBD40E4800784006FBD50C48007853
:102840000C210842FAD10C200A49086001BD0000A1
:1028500003E8000004200540012005400020054059
:1028600024800440014006400050064000400640DD
:10287000044006400480044070B40121002213E0AB
:102880000468001D0C4202D04D466D1E6419226082
:10289000241D1B1F042BFAD225009E0701D5228080
:1028A000AD1C0B4000D02A700368001D002BE7D13F
:1028B00070BC704730B401210268001D002A0FD09F
:1028C0000368C318446808300C4202D04D466D1EA0
:1028D00064191D6825601B1D241D121FECD0F8E72C
:1028E00030BC704710B5074979441831064C7C4418
:1028F000163404E0081D0A68891888470100A142BF
:10290000F8D110BD08000000280000006DFFFFFF97
:102910001802000050F0FF1F0000000099FFFFFFA9
:1029200050000000DC00000000F0FF1F000000006D
:1029300000F00BF8002801D0FFF7D4FF002000BF03
:1029400000BFFFF748FB00F002F80120704780B598
:1029500000F002F801BDFEE70746384600F002F835
:10296000FBE7FEE780B500BF00BF024A1100182058
:10297000ABBEFBE7260002000100020004000800D5
:102980001000200040008000000100020004000050
:1029900001488047014800470D280000B929000080
:1029A000008003400090034000A00340000000F8B6
:1029B000400000F8800000F800BF00BF00BF00BF6B
:1029C000FFF7B6FFFEE7FEE7FEE7FEE7FEE7FEE7FE
:1029D000FEE7FEE7FEE7FEE7FEE7FEE7FEE7FEE7CF
:1029E000FEE7FEE7FEE7FEE7FEE7FEE7FEE7FEE7BF
:1029F000FEE7FEE7FEE7FEE7FEE7FEE7FEE7000094
:102A000001000000020000000300000004000000BC
:102A1000050000000600000007000000080000009C
:102A2000090000000A0000000B0000000C0000007C
:102A300000A0064000B0064000C006404E00000066
:102A40000AD7233C2C0100002C01000003000000E9
:04000005000029B915
:00000001FF
